{
  "contractName": "HotelBooking",
  "abi": [
    {
      "inputs": [],
      "stateMutability": "nonpayable",
      "type": "constructor"
    },
    {
      "anonymous": false,
      "inputs": [
        {
          "indexed": false,
          "internalType": "uint256",
          "name": "bookingId",
          "type": "uint256"
        },
        {
          "indexed": false,
          "internalType": "address",
          "name": "customer",
          "type": "address"
        },
        {
          "indexed": false,
          "internalType": "uint256",
          "name": "refundAmount",
          "type": "uint256"
        }
      ],
      "name": "BookingCancelled",
      "type": "event"
    },
    {
      "anonymous": false,
      "inputs": [
        {
          "indexed": false,
          "internalType": "uint256",
          "name": "roomId",
          "type": "uint256"
        },
        {
          "indexed": false,
          "internalType": "address",
          "name": "customer",
          "type": "address"
        },
        {
          "indexed": false,
          "internalType": "uint256",
          "name": "checkInDate",
          "type": "uint256"
        },
        {
          "indexed": false,
          "internalType": "uint256",
          "name": "checkOutDate",
          "type": "uint256"
        }
      ],
      "name": "RoomBooked",
      "type": "event"
    },
    {
      "inputs": [
        {
          "internalType": "uint256",
          "name": "",
          "type": "uint256"
        }
      ],
      "name": "bookings",
      "outputs": [
        {
          "internalType": "address",
          "name": "customer",
          "type": "address"
        },
        {
          "internalType": "uint256",
          "name": "roomId",
          "type": "uint256"
        },
        {
          "internalType": "uint256",
          "name": "checkInDate",
          "type": "uint256"
        },
        {
          "internalType": "uint256",
          "name": "checkOutDate",
          "type": "uint256"
        },
        {
          "internalType": "uint256",
          "name": "bookingTime",
          "type": "uint256"
        },
        {
          "internalType": "bool",
          "name": "isCancelled",
          "type": "bool"
        },
        {
          "internalType": "string",
          "name": "ipfsHash",
          "type": "string"
        }
      ],
      "stateMutability": "view",
      "type": "function",
      "constant": true
    },
    {
      "inputs": [],
      "name": "owner",
      "outputs": [
        {
          "internalType": "address",
          "name": "",
          "type": "address"
        }
      ],
      "stateMutability": "view",
      "type": "function",
      "constant": true
    },
    {
      "inputs": [
        {
          "internalType": "uint256",
          "name": "",
          "type": "uint256"
        }
      ],
      "name": "roomBookings",
      "outputs": [
        {
          "internalType": "address",
          "name": "customer",
          "type": "address"
        },
        {
          "internalType": "uint256",
          "name": "roomId",
          "type": "uint256"
        },
        {
          "internalType": "uint256",
          "name": "checkInDate",
          "type": "uint256"
        },
        {
          "internalType": "uint256",
          "name": "checkOutDate",
          "type": "uint256"
        },
        {
          "internalType": "uint256",
          "name": "bookingTime",
          "type": "uint256"
        },
        {
          "internalType": "bool",
          "name": "isCancelled",
          "type": "bool"
        },
        {
          "internalType": "string",
          "name": "ipfsHash",
          "type": "string"
        }
      ],
      "stateMutability": "view",
      "type": "function",
      "constant": true
    },
    {
      "inputs": [
        {
          "internalType": "uint256",
          "name": "",
          "type": "uint256"
        }
      ],
      "name": "rooms",
      "outputs": [
        {
          "internalType": "uint256",
          "name": "id",
          "type": "uint256"
        },
        {
          "internalType": "string",
          "name": "name",
          "type": "string"
        },
        {
          "internalType": "uint256",
          "name": "price",
          "type": "uint256"
        },
        {
          "internalType": "bool",
          "name": "isBooked",
          "type": "bool"
        }
      ],
      "stateMutability": "view",
      "type": "function",
      "constant": true
    },
    {
      "inputs": [
        {
          "internalType": "string",
          "name": "_name",
          "type": "string"
        },
        {
          "internalType": "uint256",
          "name": "_price",
          "type": "uint256"
        }
      ],
      "name": "addRoom",
      "outputs": [],
      "stateMutability": "nonpayable",
      "type": "function"
    },
    {
      "inputs": [
        {
          "internalType": "uint256",
          "name": "_roomId",
          "type": "uint256"
        },
        {
          "internalType": "uint256",
          "name": "_checkInDate",
          "type": "uint256"
        },
        {
          "internalType": "uint256",
          "name": "_checkOutDate",
          "type": "uint256"
        },
        {
          "internalType": "string",
          "name": "_ipfsHash",
          "type": "string"
        }
      ],
      "name": "bookRoom",
      "outputs": [],
      "stateMutability": "payable",
      "type": "function",
      "payable": true
    },
    {
      "inputs": [
        {
          "internalType": "uint256",
          "name": "_roomId",
          "type": "uint256"
        }
      ],
      "name": "cancelBooking",
      "outputs": [],
      "stateMutability": "nonpayable",
      "type": "function"
    },
    {
      "inputs": [],
      "name": "getRooms",
      "outputs": [
        {
          "components": [
            {
              "internalType": "uint256",
              "name": "id",
              "type": "uint256"
            },
            {
              "internalType": "string",
              "name": "name",
              "type": "string"
            },
            {
              "internalType": "uint256",
              "name": "price",
              "type": "uint256"
            },
            {
              "internalType": "bool",
              "name": "isBooked",
              "type": "bool"
            }
          ],
          "internalType": "struct HotelBooking.Room[]",
          "name": "",
          "type": "tuple[]"
        }
      ],
      "stateMutability": "view",
      "type": "function",
      "constant": true
    },
    {
      "inputs": [],
      "name": "getBookings",
      "outputs": [
        {
          "components": [
            {
              "internalType": "address",
              "name": "customer",
              "type": "address"
            },
            {
              "internalType": "uint256",
              "name": "roomId",
              "type": "uint256"
            },
            {
              "internalType": "uint256",
              "name": "checkInDate",
              "type": "uint256"
            },
            {
              "internalType": "uint256",
              "name": "checkOutDate",
              "type": "uint256"
            },
            {
              "internalType": "uint256",
              "name": "bookingTime",
              "type": "uint256"
            },
            {
              "internalType": "bool",
              "name": "isCancelled",
              "type": "bool"
            },
            {
              "internalType": "string",
              "name": "ipfsHash",
              "type": "string"
            }
          ],
          "internalType": "struct HotelBooking.Booking[]",
          "name": "",
          "type": "tuple[]"
        }
      ],
      "stateMutability": "view",
      "type": "function",
      "constant": true
    },
    {
      "inputs": [],
      "name": "getBookingsLength",
      "outputs": [
        {
          "internalType": "uint256",
          "name": "",
          "type": "uint256"
        }
      ],
      "stateMutability": "view",
      "type": "function",
      "constant": true
    }
  ],
  "bytecode": "0x608060405234801561001057600080fd5b50336000806101000a81548173ffffffffffffffffffffffffffffffffffffffff021916908373ffffffffffffffffffffffffffffffffffffffff160217905550611e82806100606000396000f3fe6080604052600436106100915760003560e01c8063955c842011610059578063955c842014610196578063a01fcc94146101c1578063b6076702146101ec578063d08f6a6b14610208578063da7166cc1461023357610091565b80630dca825e146100965780631bae0ac8146100bf5780631dab301e146100ff5780634bde3ab1146101425780638da5cb5b1461016b575b600080fd5b3480156100a257600080fd5b506100bd60048036038101906100b891906111d4565b610276565b005b3480156100cb57600080fd5b506100e660048036038101906100e191906111d4565b610469565b6040516100f694939291906112c4565b60405180910390f35b34801561010b57600080fd5b50610126600480360381019061012191906111d4565b61053e565b6040516101399796959493929190611351565b60405180910390f35b34801561014e57600080fd5b50610169600480360381019061016491906114fc565b610645565b005b34801561017757600080fd5b50610180610784565b60405161018d9190611558565b60405180910390f35b3480156101a257600080fd5b506101ab6107a8565b6040516101b89190611748565b60405180910390f35b3480156101cd57600080fd5b506101d6610932565b6040516101e3919061176a565b60405180910390f35b61020660048036038101906102019190611785565b61093f565b005b34801561021457600080fd5b5061021d610d24565b60405161022a919061192d565b60405180910390f35b34801561023f57600080fd5b5061025a600480360381019061025591906111d4565b610e44565b60405161026d9796959493929190611351565b60405180910390f35b60006003600083815260200190815260200160002090503373ffffffffffffffffffffffffffffffffffffffff168160000160009054906101000a900473ffffffffffffffffffffffffffffffffffffffff1673ffffffffffffffffffffffffffffffffffffffff161461031f576040517f08c379a0000000000000000000000000000000000000000000000000000000008152600401610316906119c1565b60405180910390fd5b8060050160009054906101000a900460ff1615610371576040517f08c379a000000000000000000000000000000000000000000000000000000000815260040161036890611a2d565b60405180910390fd5b600061038582600401548360010154610f3b565b905060018260050160006101000a81548160ff0219169083151502179055506000600184815481106103ba576103b9611a4d565b5b906000526020600020906004020160030160006101000a81548160ff0219169083151502179055503373ffffffffffffffffffffffffffffffffffffffff166108fc829081150290604051600060405180830381858888f19350505050158015610428573d6000803e3d6000fd5b507f1b6cb622ce03beaf3e0c44cb4253af7c70bb84b7e3711229b33cc2ec4c613c8e83338360405161045c93929190611a7c565b60405180910390a1505050565b6001818154811061047957600080fd5b90600052602060002090600402016000915090508060000154908060010180546104a290611ae2565b80601f01602080910402602001604051908101604052809291908181526020018280546104ce90611ae2565b801561051b5780601f106104f05761010080835404028352916020019161051b565b820191906000526020600020905b8154815290600101906020018083116104fe57829003601f168201915b5050505050908060020154908060030160009054906101000a900460ff16905084565b6002818154811061054e57600080fd5b90600052602060002090600702016000915090508060000160009054906101000a900473ffffffffffffffffffffffffffffffffffffffff16908060010154908060020154908060030154908060040154908060050160009054906101000a900460ff16908060060180546105c290611ae2565b80601f01602080910402602001604051908101604052809291908181526020018280546105ee90611ae2565b801561063b5780601f106106105761010080835404028352916020019161063b565b820191906000526020600020905b81548152906001019060200180831161061e57829003601f168201915b5050505050905087565b60008054906101000a900473ffffffffffffffffffffffffffffffffffffffff1673ffffffffffffffffffffffffffffffffffffffff163373ffffffffffffffffffffffffffffffffffffffff16146106d3576040517f08c379a00000000000000000000000000000000000000000000000000000000081526004016106ca90611b86565b60405180910390fd5b600060018054905090506001604051806080016040528083815260200185815260200184815260200160001515815250908060018154018082558091505060019003906000526020600020906004020160009091909190915060008201518160000155602082015181600101908051906020019061075292919061105a565b506040820151816002015560608201518160030160006101000a81548160ff0219169083151502179055505050505050565b60008054906101000a900473ffffffffffffffffffffffffffffffffffffffff1681565b60606002805480602002602001604051908101604052809291908181526020016000905b8282101561092957838290600052602060002090600702016040518060e00160405290816000820160009054906101000a900473ffffffffffffffffffffffffffffffffffffffff1673ffffffffffffffffffffffffffffffffffffffff1673ffffffffffffffffffffffffffffffffffffffff168152602001600182015481526020016002820154815260200160038201548152602001600482015481526020016005820160009054906101000a900460ff1615151515815260200160068201805461089890611ae2565b80601f01602080910402602001604051908101604052809291908181526020018280546108c490611ae2565b80156109115780601f106108e657610100808354040283529160200191610911565b820191906000526020600020905b8154815290600101906020018083116108f457829003601f168201915b505050505081525050815260200190600101906107cc565b50505050905090565b6000600280549050905090565b6001805490508410610986576040517f08c379a000000000000000000000000000000000000000000000000000000000815260040161097d90611bf2565b60405180910390fd5b6001848154811061099a57610999611a4d565b5b906000526020600020906004020160030160009054906101000a900460ff16156109f9576040517f08c379a00000000000000000000000000000000000000000000000000000000081526004016109f090611c5e565b60405180910390fd5b60018481548110610a0d57610a0c611a4d565b5b9060005260206000209060040201600201543414610a60576040517f08c379a0000000000000000000000000000000000000000000000000000000008152600401610a5790611cca565b60405180910390fd5b6001808581548110610a7557610a74611a4d565b5b906000526020600020906004020160030160006101000a81548160ff0219169083151502179055506000600280549050905060026040518060e001604052803373ffffffffffffffffffffffffffffffffffffffff16815260200187815260200186815260200185815260200142815260200160001515815260200184815250908060018154018082558091505060019003906000526020600020906007020160009091909190915060008201518160000160006101000a81548173ffffffffffffffffffffffffffffffffffffffff021916908373ffffffffffffffffffffffffffffffffffffffff1602179055506020820151816001015560408201518160020155606082015181600301556080820151816004015560a08201518160050160006101000a81548160ff02191690831515021790555060c0820151816006019080519060200190610bc992919061105a565b50505060028181548110610be057610bdf611a4d565b5b9060005260206000209060070201600360008781526020019081526020016000206000820160009054906101000a900473ffffffffffffffffffffffffffffffffffffffff168160000160006101000a81548173ffffffffffffffffffffffffffffffffffffffff021916908373ffffffffffffffffffffffffffffffffffffffff160217905550600182015481600101556002820154816002015560038201548160030155600482015481600401556005820160009054906101000a900460ff168160050160006101000a81548160ff0219169083151502179055506006820181600601908054610cd190611ae2565b610cdc9291906110e0565b509050507f414e8daa25ba8dde6e691876495db5da793781eed1794da14679b2af00301df685338686604051610d159493929190611cea565b60405180910390a15050505050565b60606001805480602002602001604051908101604052809291908181526020016000905b82821015610e3b578382906000526020600020906004020160405180608001604052908160008201548152602001600182018054610d8590611ae2565b80601f0160208091040260200160405190810160405280929190818152602001828054610db190611ae2565b8015610dfe5780601f10610dd357610100808354040283529160200191610dfe565b820191906000526020600020905b815481529060010190602001808311610de157829003601f168201915b50505050508152602001600282015481526020016003820160009054906101000a900460ff16151515158152505081526020019060010190610d48565b50505050905090565b60036020528060005260406000206000915090508060000160009054906101000a900473ffffffffffffffffffffffffffffffffffffffff16908060010154908060020154908060030154908060040154908060050160009054906101000a900460ff1690806006018054610eb890611ae2565b80601f0160208091040260200160405190810160405280929190818152602001828054610ee490611ae2565b8015610f315780601f10610f0657610100808354040283529160200191610f31565b820191906000526020600020905b815481529060010190602001808311610f1457829003601f168201915b5050505050905087565b6000808342610f4a9190611d5e565b9050600060018481548110610f6257610f61611a4d565b5b9060005260206000209060040201600201549050603c821015610fa05760648082610f8d9190611d92565b610f979190611e1b565b92505050611054565b6078821015610fcb576064605a82610fb89190611d92565b610fc29190611e1b565b92505050611054565b60b4821015610ff6576064605082610fe39190611d92565b610fed9190611e1b565b92505050611054565b60f082101561102157606460468261100e9190611d92565b6110189190611e1b565b92505050611054565b61012c82101561104d576064603c8261103a9190611d92565b6110449190611e1b565b92505050611054565b6000925050505b92915050565b82805461106690611ae2565b90600052602060002090601f01602090048101928261108857600085556110cf565b82601f106110a157805160ff19168380011785556110cf565b828001600101855582156110cf579182015b828111156110ce5782518255916020019190600101906110b3565b5b5090506110dc919061116d565b5090565b8280546110ec90611ae2565b90600052602060002090601f01602090048101928261110e576000855561115c565b82601f1061111f578054855561115c565b8280016001018555821561115c57600052602060002091601f016020900482015b8281111561115b578254825591600101919060010190611140565b5b509050611169919061116d565b5090565b5b8082111561118657600081600090555060010161116e565b5090565b6000604051905090565b600080fd5b600080fd5b6000819050919050565b6111b18161119e565b81146111bc57600080fd5b50565b6000813590506111ce816111a8565b92915050565b6000602082840312156111ea576111e9611194565b5b60006111f8848285016111bf565b91505092915050565b61120a8161119e565b82525050565b600081519050919050565b600082825260208201905092915050565b60005b8381101561124a57808201518184015260208101905061122f565b83811115611259576000848401525b50505050565b6000601f19601f8301169050919050565b600061127b82611210565b611285818561121b565b935061129581856020860161122c565b61129e8161125f565b840191505092915050565b60008115159050919050565b6112be816112a9565b82525050565b60006080820190506112d96000830187611201565b81810360208301526112eb8186611270565b90506112fa6040830185611201565b61130760608301846112b5565b95945050505050565b600073ffffffffffffffffffffffffffffffffffffffff82169050919050565b600061133b82611310565b9050919050565b61134b81611330565b82525050565b600060e082019050611366600083018a611342565b6113736020830189611201565b6113806040830188611201565b61138d6060830187611201565b61139a6080830186611201565b6113a760a08301856112b5565b81810360c08301526113b98184611270565b905098975050505050505050565b600080fd5b600080fd5b7f4e487b7100000000000000000000000000000000000000000000000000000000600052604160045260246000fd5b6114098261125f565b810181811067ffffffffffffffff82111715611428576114276113d1565b5b80604052505050565b600061143b61118a565b90506114478282611400565b919050565b600067ffffffffffffffff821115611467576114666113d1565b5b6114708261125f565b9050602081019050919050565b82818337600083830152505050565b600061149f61149a8461144c565b611431565b9050828152602081018484840111156114bb576114ba6113cc565b5b6114c684828561147d565b509392505050565b600082601f8301126114e3576114e26113c7565b5b81356114f384826020860161148c565b91505092915050565b6000806040838503121561151357611512611194565b5b600083013567ffffffffffffffff81111561153157611530611199565b5b61153d858286016114ce565b925050602061154e858286016111bf565b9150509250929050565b600060208201905061156d6000830184611342565b92915050565b600081519050919050565b600082825260208201905092915050565b6000819050602082019050919050565b6115a881611330565b82525050565b6115b78161119e565b82525050565b6115c6816112a9565b82525050565b600082825260208201905092915050565b60006115e882611210565b6115f281856115cc565b935061160281856020860161122c565b61160b8161125f565b840191505092915050565b600060e08301600083015161162e600086018261159f565b50602083015161164160208601826115ae565b50604083015161165460408601826115ae565b50606083015161166760608601826115ae565b50608083015161167a60808601826115ae565b5060a083015161168d60a08601826115bd565b5060c083015184820360c08601526116a582826115dd565b9150508091505092915050565b60006116be8383611616565b905092915050565b6000602082019050919050565b60006116de82611573565b6116e8818561157e565b9350836020820285016116fa8561158f565b8060005b85811015611736578484038952815161171785826116b2565b9450611722836116c6565b925060208a019950506001810190506116fe565b50829750879550505050505092915050565b6000602082019050818103600083015261176281846116d3565b905092915050565b600060208201905061177f6000830184611201565b92915050565b6000806000806080858703121561179f5761179e611194565b5b60006117ad878288016111bf565b94505060206117be878288016111bf565b93505060406117cf878288016111bf565b925050606085013567ffffffffffffffff8111156117f0576117ef611199565b5b6117fc878288016114ce565b91505092959194509250565b600081519050919050565b600082825260208201905092915050565b6000819050602082019050919050565b600060808301600083015161184c60008601826115ae565b506020830151848203602086015261186482826115dd565b915050604083015161187960408601826115ae565b50606083015161188c60608601826115bd565b508091505092915050565b60006118a38383611834565b905092915050565b6000602082019050919050565b60006118c382611808565b6118cd8185611813565b9350836020820285016118df85611824565b8060005b8581101561191b57848403895281516118fc8582611897565b9450611907836118ab565b925060208a019950506001810190506118e3565b50829750879550505050505092915050565b6000602082019050818103600083015261194781846118b8565b905092915050565b7f4f6e6c792074686520637573746f6d65722063616e2063616e63656c2074686560008201527f20626f6f6b696e67000000000000000000000000000000000000000000000000602082015250565b60006119ab60288361121b565b91506119b68261194f565b604082019050919050565b600060208201905081810360008301526119da8161199e565b9050919050565b7f426f6f6b696e6720697320616c72656164792063616e63656c6c656400000000600082015250565b6000611a17601c8361121b565b9150611a22826119e1565b602082019050919050565b60006020820190508181036000830152611a4681611a0a565b9050919050565b7f4e487b7100000000000000000000000000000000000000000000000000000000600052603260045260246000fd5b6000606082019050611a916000830186611201565b611a9e6020830185611342565b611aab6040830184611201565b949350505050565b7f4e487b7100000000000000000000000000000000000000000000000000000000600052602260045260246000fd5b60006002820490506001821680611afa57607f821691505b60208210811415611b0e57611b0d611ab3565b5b50919050565b7f4f6e6c7920746865206f776e65722063616e20706572666f726d20746869732060008201527f616374696f6e0000000000000000000000000000000000000000000000000000602082015250565b6000611b7060268361121b565b9150611b7b82611b14565b604082019050919050565b60006020820190508181036000830152611b9f81611b63565b9050919050565b7f496e76616c696420726f6f6d2069640000000000000000000000000000000000600082015250565b6000611bdc600f8361121b565b9150611be782611ba6565b602082019050919050565b60006020820190508181036000830152611c0b81611bcf565b9050919050565b7f526f6f6d20697320616c726561647920626f6f6b656400000000000000000000600082015250565b6000611c4860168361121b565b9150611c5382611c12565b602082019050919050565b60006020820190508181036000830152611c7781611c3b565b9050919050565b7f496e636f72726563742045746865722073656e74000000000000000000000000600082015250565b6000611cb460148361121b565b9150611cbf82611c7e565b602082019050919050565b60006020820190508181036000830152611ce381611ca7565b9050919050565b6000608082019050611cff6000830187611201565b611d0c6020830186611342565b611d196040830185611201565b611d266060830184611201565b95945050505050565b7f4e487b7100000000000000000000000000000000000000000000000000000000600052601160045260246000fd5b6000611d698261119e565b9150611d748361119e565b925082821015611d8757611d86611d2f565b5b828203905092915050565b6000611d9d8261119e565b9150611da88361119e565b9250817fffffffffffffffffffffffffffffffffffffffffffffffffffffffffffffffff0483118215151615611de157611de0611d2f565b5b828202905092915050565b7f4e487b7100000000000000000000000000000000000000000000000000000000600052601260045260246000fd5b6000611e268261119e565b9150611e318361119e565b925082611e4157611e40611dec565b5b82820490509291505056fea26469706673582212202141b16720062be007461a10a39a36e95d6ec2318be0aa77ee502d63c89f139364736f6c634300080a0033",
  "immutableReferences": {},
  "source": "// SPDX-License-Identifier: MIT\npragma solidity ^0.8.10;\n\ncontract HotelBooking {\n    // (Room)  \n    struct Room {\n        uint id;          //   \n        string name;      //  \n        uint price;       //   (Wei )\n        bool isBooked;    //   \n    }\n\n    // (Booking)  \n    struct Booking {\n        address customer;     //    \n        uint roomId;          //   ID\n        uint checkInDate;     //   ()\n        uint checkOutDate;    //   ()\n        uint bookingTime;     //   ()\n        bool isCancelled;     //   \n        string ipfsHash;      //   IPFS \n    }\n\n    address public owner;           //  \n    Room[] public rooms;            //   \n    Booking[] public bookings;      //   \n\n    //  ID    \n    mapping(uint => Booking) public roomBookings;\n\n    //     \n    event RoomBooked(uint roomId, address customer, uint checkInDate, uint checkOutDate);\n\n    //     \n    event BookingCancelled(uint bookingId, address customer, uint refundAmount);\n\n    //     \n    constructor() {\n        owner = msg.sender;\n    }\n\n    //       \n    modifier onlyOwner() {\n        require(msg.sender == owner, \"Only the owner can perform this action\");\n        _;\n    }\n\n    //    ,   \n    function addRoom(string memory _name, uint _price) public onlyOwner {\n        uint roomId = rooms.length; //   ID    \n        rooms.push(Room(roomId, _name, _price, false)); //    \n    }\n\n    //   \n    function bookRoom(uint _roomId, uint _checkInDate, uint _checkOutDate, string memory _ipfsHash) public payable {\n        require(_roomId < rooms.length, \"Invalid room id\"); //  ID  \n        require(!rooms[_roomId].isBooked, \"Room is already booked\"); //      \n        require(msg.value == rooms[_roomId].price, \"Incorrect Ether sent\"); //    \n\n        rooms[_roomId].isBooked = true; //    \n        uint bookingId = bookings.length; //   ID    \n        bookings.push(Booking(msg.sender, _roomId, _checkInDate, _checkOutDate, block.timestamp, false, _ipfsHash)); //    \n        roomBookings[_roomId] = bookings[bookingId]; //  ID   \n\n        emit RoomBooked(_roomId, msg.sender, _checkInDate, _checkOutDate); // RoomBooked  \n    }\n\n    //   \n    function cancelBooking(uint _roomId) public {\n        Booking storage booking = roomBookings[_roomId]; //    \n        require(booking.customer == msg.sender, \"Only the customer can cancel the booking\"); //      \n        require(!booking.isCancelled, \"Booking is already cancelled\"); //     \n\n        uint refundAmount = calculateRefund(booking.bookingTime, booking.roomId); //   \n        booking.isCancelled = true; //    \n        rooms[_roomId].isBooked = false; //     \n\n        payable(msg.sender).transfer(refundAmount); //    \n        emit BookingCancelled(_roomId, msg.sender, refundAmount); // BookingCancelled  \n    }\n\n    //        \n    function calculateRefund(uint bookingTime, uint roomId) internal view returns (uint) {\n        uint elapsed = block.timestamp - bookingTime; //     \n        uint price = rooms[roomId].price; //   \n\n        //      \n        if (elapsed < 1 minutes) {\n            return price * 100 / 100; // 1    100% \n        } else if (elapsed < 2 minutes) {\n            return price * 90 / 100; // 2    90% \n        } else if (elapsed < 3 minutes) {\n            return price * 80 / 100; // 3    80% \n        } else if (elapsed < 4 minutes) {\n            return price * 70 / 100; // 4    70% \n        } else if (elapsed < 5 minutes) {\n            return price * 60 / 100; // 5    60% \n        } else {\n            return 0; // 5     \n        }\n    }\n\n    //     \n    function getRooms() public view returns (Room[] memory) {\n        return rooms; //   \n    }\n\n    //     \n    function getBookings() public view returns (Booking[] memory) {\n        return bookings; //   \n    }\n    \n    //      \n    function getBookingsLength() public view returns (uint) {\n        return bookings.length;\n    }\n}\n",
  "sourcePath": "/Users/yooseungjong/GitHub/HotelReservation/contracts/HotelBooking.sol",
  "compiler": {
    "name": "solc",
    "version": "0.8.10+commit.fc410830.Emscripten.clang"
  },
  "schemaVersion": "3.4.16",
  "updatedAt": "2024-05-28T14:32:11.505Z",
  "networkType": "ethereum",
  "devdoc": {
    "kind": "dev",
    "methods": {},
    "version": 1
  },
  "userdoc": {
    "kind": "user",
    "methods": {},
    "version": 1
  }
}